:020000040800F2
:1000000000500020B51D0008410600084306000806
:1000100045060008470600084906000800000000E1
:100020000000000000000000000000004B06000877
:100030004D060008000000004F06000851060008A9
:10004000FD1D0008FD1D0008FD1D0008FD1D000828
:10005000FD1D0008FD1D0008FD1D0008FD1D000818
:10006000FD1D0008FD1D0008FD1D0008FD1D000808
:10007000FD1D0008FD1D0008FD1D0008FD1D0008F8
:10008000FD1D0008FD1D0008FD1D0008FD1D0008E8
:10009000FD1D0008FD1D0008FD1D0008FD1D0008D8
:1000A000FD1D0008FD1D0008FD1D0008FD1D0008C8
:1000B000FD1D0008FD1D0008FD1D0008FD1D0008B8
:1000C000FD1D0008FD1D0008FD1D0008FD1D0008A8
:1000D000FD1D0008FD1D0008FD1D0008FD1D000898
:1000E000FD1D0008FD1D0008FD1D000800000000AA
:1000F0000000000000000000000000000000000000
:0C01000000000000000000005FF808F1A3
:10010C000348044B834202D0034B03B1184770479A
:10011C006800002068000020000000000548064B25
:10012C001B1AD90F01EBA301491002D0034B03B1E9
:10013C00184770476800002068000020000000008D
:10014C0010B5064C237843B9FFF7DAFF044B13B113
:10015C000448AFF300800123237010BD6800002019
:10016C0000000000282D000808B5054B1BB10549FF
:10017C000548AFF30080BDE80840FFF7CFBF00BFD4
:10018C00000000006C000020282D000800B583B092
:10019C0001904FF6FF73012201A9034801F087FC7F
:1001AC00019803B05DF804FB7401002008B572B629
:1001BC000421034801F03EFAC82000F05DFDF7E78A
:1001CC000008014000B595B0282200210DEB02007B
:1001DC0001F042FF002305930693079308930993BC
:1001EC00019302930393049301220A924FF48033F8
:1001FC000B934FF400310C910E9202221192129338
:10020C004FF4E01313930AA800F060FDC0B90F235C
:10021C00059302210691002307934FF48062089204
:10022C00099305A800F08AFF60B9102301930023FD
:10023C00049301A801F05EF830B915B05DF804FB29
:10024C00FFF7B4FFFFF7B2FFFFF7B0FF30B585B093
:10025C0000F0EEFCFFF7B6FF00F0A0F800F0D8F8C5
:10026C0000F042F900F090F901F0D6FC3D4C00236F
:10027C006361A361236123606360A360E360012277
:10028C00E26122620E226262374A936040F246417A
:10029C001160D36008231361344B31221A7032225F
:1002AC005A7033229A703422DA7035221A7136223F
:1002BC005A7137229A713822DA712D4BEC460FCBDA
:1002CC00ACE807002CF8023B1B0C8CF80030294DD5
:1002DC002146284600F082FA284600F005FB022150
:1002EC00284600F06CFC0221284600F068FC58B14E
:1002FC00FFF75CFFFFF75AFF1F4B204A00211D48F8
:10030C0000F0A8FB0446C8B14FF4FA7000F0B4FC3E
:10031C0004211B4801F08EF91A4B144A1249154856
:10032C0000F010FB0028E5D11749124800F07FFBC4
:10033C000028E1D0154801F087FEDDE7144801F0F4
:10034C001BFE0E4B1969134801F016FE07E00A4B11
:10035C001A5D2146104801F00FFE0134E4B2072C5F
:10036C00F5D9D1E790000020E0000020BC0000206F
:10037C00742E0008F800002084000020C400002027
:10038C0000080140B80000208C000020302E00082E
:10039C00402E0008542E00081C2E000830B589B0E1
:1003AC0000240494059406940794174B9A6942F020
:1003BC0020029A619A6902F020020192019A9A69CC
:1003CC0042F004029A619A6902F004020292029AC3
:1003DC009A6942F008029A619B6903F0080303933F
:1003EC00039B0A4D22460421284601F01DF90423E3
:1003FC0004930123059306940223079304A928462A
:10040C0001F004F809B030BD0010024000080140B2
:10041C0008B51048104B0360082343604FF080432D
:10042C0083604FF08073C3604FF4403303614FF42B
:10043C004013436100230376437683760122C27610
:10044C000377437700F024F900B908BDFFF7AEFE3F
:10045C00FBE700BFF80000200064004010B586B038
:10046C000023029303930493059302681B4B9A4257
:10047C0001D006B010BD03F5D633DA6942F0007234
:10048C00DA61DA6902F000720092009A9A6942F01D
:10049C0008029A619B6903F008030193019B4FF4D6
:1004AC0080730293012304930D4C02A9204600F0A3
:1004BC00ADFF4FF4007302930223039303230593C0
:1004CC0002A9204600F0A2FF064A536823F4C04359
:1004DC0043F0E06343F480435360CAE70064004098
:1004EC00000C01400000014008B50B480B4B0360A9
:1004FC000B4B436000238360C3604FF48042026166
:10050C0043618361C361036201F008F900B908BD5E
:10051C00FFF74CFEFBE700BF200100200054004019
:10052C00A086010010B586B00023029303930493B8
:10053C0005930268114B9A4201D006B010BD104CC5
:10054C00A36943F00803A361A36903F008030093B4
:10055C00009BC0230293122303930323059302A948
:10056C00084800F053FFE36943F40013E361E369C7
:10057C0003F400130193019BDFE700BF005400401C
:10058C0000100240000C014008B50A480A4B0360F9
:10059C004FF4E133436000238360C36003610C229A
:1005AC0042618361C36101F052FA00B908BDFFF7E3
:1005BC00FDFDFBE7740100200038014010B586B04A
:1005CC00002302930393049305930268174B9A42FA
:1005DC0001D006B010BD03F558439A6942F480422D
:1005EC009A619A6902F480420092009A9A6942F0E8
:1005FC0004029A619B6903F004030193019B4FF47D
:10060C00007302930223039303230593084C02A95E
:10061C00204600F0FBFE4FF480630293002303930B
:10062C00049302A9204600F0F1FED2E70038014005
:10063C0000080140FEE7FEE7FEE7FEE7FEE7704735
:10064C007047704708B500F005FB08BD82B00E4B33
:10065C009A6942F001029A619A6902F001020092D1
:10066C00009ADA6942F08052DA61DB6903F0805358
:10067C000193019B054A536823F0E06343F0007338
:10068C00536002B0704700BF0010024000000140F0
:10069C00002800F0A18038B5044690F82030D3B182
:1006AC002268136843F00103136000F0DFFA05467B
:1006BC0023685A6812F0010F10D100F0D7FA401BD2
:1006CC000A28F5D9636A43F400336362052384F87E
:1006DC002030012038BDFFF7C1FEE1E71A6822F097
:1006EC0002021A6000F0C2FA054623685A6812F03A
:1006FC00020F0DD000F0BAFA401B0A28F5D9636A34
:10070C0043F400336362052384F820300120E1E7D1
:10071C00227E012A3DD01A6822F080021A60637E84
:10072C00012B3BD02268136823F040031360A37E97
:10073C00012B39D02268136823F020031360E37E69
:10074C00012B37D02268136843F010031360237F0A
:10075C00012B35D02268136823F008031360637FE4
:10076C00012B33D02268136823F004031360A368B1
:10077C00E268134322691343626913436268013AC6
:10078C0021681343CB6100206062012384F8203080
:10079C00A0E71A6842F080021A60C0E7226813686A
:1007AC0043F040031360C2E72268136843F0200350
:1007BC001360C4E72268136823F010031360C6E7C4
:1007CC002268136843F008031360C8E722681368B3
:1007DC0043F004031360CAE701207047026890F8E5
:1007EC002030013BDBB2012B05D9436A43F4802353
:1007FC0043620120704710B5D2F8003243F0010378
:10080C00C2F800324B6903F01F03012000FA03F316
:10081C00D2F81C026FEA030C20EA0300C2F81C0297
:10082C00C869C0B9D2F80C020CEA0000C2F80C027C
:10083C008C884869D1F80CE044EA0E44483042F800
:10084C0030400C884869D1F808E044EA0E4448303E
:10085C0002EBC0004460C86901281AD0886988BBC3
:10086C00D2F804020CEA0000C2F80402086978BB52
:10087C00D2F814020CEA0000C2F81402096A012929
:10088C002CD0D2F8003223F00103C2F80032002041
:10089C0010BDD2F80C021843C2F80C028C884869BF
:1008AC00D1F800E044EA0E44483042F830408C89DC
:1008BC004869D1F808E044EA0E44483002EBC00025
:1008CC004460CBE7D2F804021843C2F80402CDE727
:1008DC00D2F814021843C2F81402CFE7D2F81C1253
:1008EC000B43C2F81C32CCE770B5044690F820508C
:1008FC00EDB2012D06D0436A43F400234362012577
:10090C00284670BD022380F820300268136823F05B
:10091C000103136000F0AAF9064623685B6813F024
:10092C00010F0CD000F0A2F9831B0A2BF5D9636AD6
:10093C0043F400336362052384F82030E0E700259C
:10094C006562DDE730B590F820C00468A4680CF14E
:10095C00FF3C5FFA8CFCBCF1010F62D814F0E05F35
:10096C0059D0C4F3016C012404FA0CF41C608B689C
:10097C00002B3DD10D68CB68046843EA45550CF15A
:10098C0018031B01E55003680C690CF1180E03EBFE
:10099C000E135C600B7D012B35D0D17993791B0440
:1009AC0043EA0163517943EA012314790168234333
:1009BC0001EB0C11C1F88C31D17893781B0443EA0C
:1009CC000163517843EA0123117802680B4302EB6F
:1009DC000C12C2F8883102680CF1180C4FEA0C1C8E
:1009EC0052F80C3043F0010342F80C3000201DE0AB
:1009FC004C6843EAC403CC6823430CF1180424016B
:100A0C0005682B51BFE7036803EB0E13596841F4DB
:100A1C0080715960C1E7436A43F4001343620120BB
:100A2C0004E0436A43F480234362012030BD90F814
:100A3C002030013BDBB2012B01D900207047036849
:100A4C009B6803EA8163B3EB816F01D0012070478F
:100A5C000020704790F820C00CF1FF3C5FFA8CFC32
:100A6C00BCF1010F00F2A58030B451B90468E46800
:100A7C0014F0030F10D1436A43F4001343620120B6
:100A8C007EE00468246914F0030F05D1436A43F433
:100A9C0000134362012073E0056801F11B0424017B
:100AAC002C5904F004049460002C6BD1056801F1FE
:100ABC001B0424012C59640D1460046801F11B0CF7
:100ACC004FEA0C1C54F80C4004F00204D460046887
:100ADC00A444DCF8045015F0080F5BD00824146112
:100AEC00046801F11B0C04EB0C146468C4F30724B8
:100AFC009461046804EB0C146468240C546102685F
:100B0C0002EB0112D2F8B8211A70026802EB011242
:100B1C00D2F8B821C2F307225A70026802EB011214
:100B2C00D2F8B821C2F307429A70026802EB0112A4
:100B3C00D2F8B821120EDA70026802EB0112D2F868
:100B4C00BC211A71026802EB0112D2F8BC21C2F36B
:100B5C0007225A71026802EB0112D2F8BC21C2F3CF
:100B6C0007429A71026802EB0112D2F8BC21120EF4
:100B7C00DA71C1B90268D36843F02003D360002056
:100B8C0030BC7047056801F11B0424012C59E408A2
:100B9C00546092E701F11B0504EB0514646804F042
:100BAC000F0414619CE70268136943F0200313617E
:100BBC00E5E7436A43F4802343620120704790F8D1
:100BCC002030013BDBB2012B05D9436A43F480236F
:100BDC00436201207047026853690B435361002044
:100BEC007047000010B504460E4B1A784FF47A7318
:100BFC00B3FBF2F30C4A1068B0FBF3F000F07AFD93
:100C0C0068B90F2C01D901200AE0002221464FF0CF
:100C1C00FF3000F05FFD054B1C60002000E0012060
:100C2C0010BD00BF000000200800002004000020C0
:100C3C0008B5074A136843F010031360032000F053
:100C4C0037FD0F20FFF7CEFFFFF700FD002008BD9A
:100C5C0000200240034A1168034B1B780B441360BD
:100C6C00704700BFBC01002000000020014B186839
:100C7C00704700BFBC01002038B50446FFF7F6FFF3
:100C8C000546B4F1FF3F02D0044B1B781C44FFF720
:100C9C00EDFF401BA042FAD338BD00BF000000207E
:100CAC0082B0084B1B68084AA2FB03235B0A00FBBB
:100CBC0003F3019300BF019B5A1E0192002BF9D143
:100CCC0002B0704708000020D34D6210002800F0DD
:100CDC00F18170B582B00446036813F0010F2CD07B
:100CEC00994B5B6803F00C03042B1DD0964B5B688F
:100CFC0003F00C03082B12D06368B3F5803F41D08E
:100D0C00002B55D103F1804303F504331A6822F408
:100D1C0080321A601A6822F480221A6037E08A4BFB
:100D2C005B6813F4803FE7D0874B1B6813F4003FDC
:100D3C0003D06368002B00F0BF81236813F0020F0F
:100D4C0075D0814B5B6813F00C0F5FD07E4B5B68EA
:100D5C0003F00C03082B54D02369002B00F08A807D
:100D6C007A4B01221A60FFF781FF0546764B1B6810
:100D7C0013F0020F75D1FFF779FF401B0228F5D94C
:100D8C0003209EE1704A136843F480331360636858
:100D9C0043B3FFF76BFF05466B4B1B6813F4003F27
:100DAC00CBD1FFF763FF401B6428F5D9032088E102
:100DBC00B3F5A02F09D0644B1A6822F480321A6064
:100DCC001A6822F480221A60E1E703F18043A3F54C
:100DDC003C331A6842F480221A601A6842F480325A
:100DEC001A60D4E7FFF742FF0546574B1B6813F414
:100DFC00003FA2D0FFF73AFF401B6428F5D903202F
:100E0C005FE1514B5B6813F4803FA5D14E4B1B68DF
:100E1C0013F0020F03D02369012B40F04F814A4A93
:100E2C00136823F0F803616943EAC1031360236874
:100E3C0013F0080F33D0A369002B5CD0434B012275
:100E4C00C3F88024FFF712FF05463F4B5B6A13F093
:100E5C00020F21D1FFF70AFF401B0228F5D903200E
:100E6C002FE1394A136823F0F803616943EAC1039F
:100E7C001360DCE7354B00221A60FFF7F7FE0546DE
:100E8C00314B1B6813F0020FD1D0FFF7EFFE401B64
:100E9C000228F5D9032014E10120FFF701FF236894
:100EAC0013F0040F00F09680274BDB6913F0805F82
:100EBC0034D1254BDA6942F08052DA61DB6903F0F8
:100ECC0080530193019B0125214B1B6813F4807FF8
:100EDC0026D0E368012B3DD0002B53D103F1804386
:100EEC0003F504331A6A22F001021A621A6A22F01C
:100EFC0004021A6233E0154B0022C3F88024FFF77A
:100F0C00B5FE0546104B5B6A13F0020FC7D0FFF716
:100F1C00ADFE401B0228F5D90320D2E00025D3E713
:100F2C000B4A136843F480731360FFF79FFE064669
:100F3C00074B1B6813F4807FCBD1FFF797FE801B08
:100F4C006428F5D90320BCE00010024000004242A6
:100F5C00007000405F4A136A43F001031362E368B8
:100F6C0033B3FFF783FE06465A4B1B6A13F0020F8E
:100F7C002FD1FFF77BFE801B41F288339842F3D9C7
:100F8C0003209EE0052B09D0524B1A6A22F0010275
:100F9C001A621A6A22F004021A62E0E74D4B1A6ACE
:100FAC0042F004021A621A6A42F001021A62D6E78F
:100FBC00FFF75CFE0646474B1B6A13F0020F08D086
:100FCC00FFF754FE801B41F288339842F3D903207B
:100FDC0077E0E5B9E369002B72D03E4A526802F023
:100FEC000C02082A56D0022B17D03B4B00221A6653
:100FFC00FFF73CFE0446374B1B6813F0007F47D0CD
:10100C00FFF734FE001B0228F5D9032059E0314AC2
:10101C00D36923F08053D361DCE72F4B00221A668F
:10102C00FFF724FE05462B4B1B6813F0007F06D000
:10103C00FFF71CFE401B0228F5D9032041E0236A70
:10104C00B3F5803F1AD023494B6823F47413226AFA
:10105C00606A024313434B601F4B01221A66FFF771
:10106C0005FE04461B4B1B6813F0007F0ED1FFF7E7
:10107C00FDFD001B0228F5D9032022E0154A536818
:10108C0023F40033A1680B435360DCE7002018E025
:10109C00002016E0012B16D00E4B5B6803F4803158
:1010AC00226A914211D103F47013626A93420ED1F9
:1010BC00002006E001207047012002E0012000E042
:1010CC00002002B070BD0120FBE70120F9E70120F0
:1010DC00F7E700BF0010024000004242114B5B6872
:1010EC0003F00C02042A18D0082A18D1C3F3834247
:1010FC000D49885C13F4803F0BD00A4B5B68C3F33B
:10110C0040430A4AD35C0A4A02FB00F0B0FBF3F0FE
:10111C007047084B03FB00F07047054870470648C2
:10112C00704700BF00100240882E0008842E000873
:10113C000024F40000093D0000127A00002800F0A1
:10114C00A08070B50D460446524B1B6803F0070394
:10115C008B420BD24F4A136823F007030B431360E7
:10116C00136803F007038B4240F08D80236813F063
:10117C00020F17D013F0040F04D0474A536843F4FE
:10118C00E0635360236813F0080F04D0424A53689D
:10119C0043F460535360404A536823F0F003A16852
:1011AC000B435360236813F0010F31D06368012B9C
:1011BC0020D0022B25D0384A126812F0020F64D0CE
:1011CC0035494A6822F0030213434B60FFF74EFD8A
:1011DC000646314B5B6803F00C036268B3EB820F7D
:1011EC0016D0FFF743FD801B41F288339842F0D9AB
:1011FC00032045E0284A126812F4003FE0D1012098
:10120C003EE0254A126812F0007FD9D1012037E068
:10121C00204B1B6803F00703AB420AD91D4A136825
:10122C0023F007032B431360136803F00703AB424F
:10123C002DD1236813F0040F06D0174A536823F4FA
:10124C00E063E1680B435360236813F0080F07D089
:10125C00114A536823F46053216943EAC103536074
:10126C00FFF73CFF0C4B5B68C3F303130B4AD35CD7
:10127C00D8400B4B18600B4B1868FFF7B3FC0020E1
:10128C0070BD012070470120FAE70120F8E701202A
:10129C00F6E700BF0020024000100240A02E00081C
:1012AC000800002004000020014B1868704700BFA4
:1012BC000800002008B5FFF7F7FF044B5B68C3F389
:1012CC000223034AD35CD84008BD00BF0010024083
:1012DC00982E000808B5FFF7E7FF044B5B68C3F3D3
:1012EC00C223034AD35CD84008BD00BF00100240A3
:1012FC00982E000870B582B00446036813F0010FF5
:10130C0036D03F4BDB6913F0805F49D13C4BDA6937
:10131C0042F08052DA61DB6903F080530193019B48
:10132C000125384B1B6813F4807F3BD0344B1B6A70
:10133C0013F4407313D0626802F440729A420ED0D8
:10134C002F4A136A23F440702F490126C1F84064D8
:10135C000026C1F84064106213F0010F36D1284A00
:10136C00136A23F4407361680B431362002D3ED162
:10137C00236813F0020F06D0214A536823F440432C
:10138C00A1680B435360236813F0100F34D01C4A30
:10139C00536823F48003E1680B43536000202CE076
:1013AC000025BEE7174A136843F480731360FFF7F8
:1013BC005DFC0646134B1B6813F4807FB6D1FFF718
:1013CC0055FC801B6428F5D9032016E0FFF74EFC72
:1013DC0006460B4B1B6A13F0020FC0D1FFF746FCFD
:1013EC00801B41F288339842F3D9032005E0D3697E
:1013FC0023F08053D361BBE7002002B070BD00BF67
:10140C0000100240007000400000424270B582B0F3
:10141C000024A446A1E07E4DAB4214D00CD8A5F517
:10142C008015AB420FD005F57025AB420BD0A5F55E
:10143C008015AB4210D106E0764DAB4203D005F5DA
:10144C008035AB4208D18B68002B50D0012B49D092
:10145C004261082400E0CC68BEF1FF0F49D8064673
:10146C004FEA8C0233680F25954023EA050304FAF2
:10147C0002F2134333604B6813F0805F6BD0664B02
:10148C009A6942F001029A619B6903F0010301938E
:10149C00019B4FEA9C02951C604B53F825600CF0A5
:1014AC000305AD000F23AB4026EA03065C4B9842C4
:1014BC0026D003F58063984200F08C8003F580639E
:1014CC00984200F0898003F58063984216D004237B
:1014DC0017E0CC680434BFE7CC680834BCE7CC68B0
:1014EC000C34B9E702610824B6E70024B4E70424FD
:1014FC00B2E7061DACF108029200B3E7032300E04B
:10150C000023AB4033430232444D45F822304B6844
:10151C0013F4801F62D0434A936843EA0E0393602E
:10152C004B6813F4001F5FD03E4AD36843EA0E03A6
:10153C00D3604B6813F4003F5CD03A4A536843EADB
:10154C000E0353604B6813F4803F59D0354A13682F
:10155C0043EA0E0313600CF1010C0B6833FA0CF226
:10156C0054D0012202FA0CF203EA020E32EA03030F
:10157C00F1D14B68122B3FF64EAF122B3FF66CAFEE
:10158C0001A555F823F000BF53140008631400089C
:10159C00E5140008F7140008651400086514000829
:1015AC00651400086514000865140008651400082B
:1015BC00651400086514000865140008651400081B
:1015CC00651400086514000865140008DF14000891
:1015DC00EB140008012394E7022392E7114A936865
:1015EC0023EA0E0393609BE70E4AD36823EA0E03AB
:1015FC00D3609EE70B4A536823EA0E035360A1E7BE
:10160C00084A136823EA0E031360A4E702B070BD06
:10161C0000002210000031100010024000000140B8
:10162C0000080140000401400AB10161704709043F
:10163C0001617047C36801EA030221EA030141EA30
:10164C000241016170470000002808DB0901C9B2A2
:10165C0000F1604000F5614080F80013704700F025
:10166C000F000901C9B2014B1954704714ED00E089
:10167C0000B500F00700C0F1070CBCF1040F28BF47
:10168C004FF0040C031D062B0FD9C31E4FF0FF3E69
:10169C000EFA0CF021EA000199400EFA03FE22EA40
:1016AC000E0241EA02005DF804FB0023EEE70000A5
:1016BC00074AD36823F4E0631B041B0C000200F4FC
:1016CC00E060034343F0BF6343F40033D3607047DF
:1016DC0000ED00E010B50446054BD868C0F30220BD
:1016EC00FFF7C6FF01462046FFF7AEFF10BD00BF57
:1016FC0000ED00E00138B0F1807F0BD24FF0E02319
:10170C005861054AF02182F82310002098610722C5
:10171C001A6170470120704700ED00E0002800F0CE
:10172C00CC8070B5044690F83D30002B77D0242344
:10173C0084F83D302268136823F00103136022689B
:10174C00136843F4004313602268136823F40043C6
:10175C001360FFF7AFFD62685A4B9A4264D85A4B3C
:10176C0098428CBF00230123002B40F0A8805749DE
:10177C00A1FB00318B0C25686A6822F03F0242EA1B
:10178C0091426A6021680A6A22F03F0266684D4DF8
:10179C00AE424FD8013313430B622168CA6922F45D
:1017AC004F4222F0FF026568464B9D424CD8431EC7
:1017BC006D00B3FBF5F3013340F6FC70034278D0B7
:1017CC00C3F30B031A43CA6121680B6823F0C003EF
:1017DC00E269206A024313430B6021688B6823F48F
:1017EC00034323F0FF032269E068024313438B6039
:1017FC002168CB6823F0FF036269A069024313439D
:10180C00CB602268136843F001031360002020644E
:10181C00202384F83D30206384F83E0070BD80F8AE
:10182C003C30FEF77FFE82E7294B98428CBF0023A9
:10183C00012399E74FF4967505FB03F3254DA5FBA2
:10184C0003539B090133A6E7A668BEB9431E05EBFB
:10185C00450CB3FBFCF30133C3F30B03B3FA83F373
:10186C005B0943BBC6B9431E05EB4505B3FBF5F35A
:10187C000133C3F30B0343F40043A3E7431E05EB0F
:10188C00850C0CEB8C0CB3FBFCF30133C3F30B0397
:10189C00B3FA83F35B09E4E7431E05EB850505EB1F
:1018AC008505B3FBF5F30133C3F30B0343F440435A
:1018BC0088E7042386E7012384E701207047012091
:1018CC00ACE700BFA08601007F841E0083DE1B43B3
:1018DC00FF083D00D34D6210026802F10C0353E87F
:1018EC00003F23F490730C3242E800310029F3D10D
:1018FC00026802F1140353E8003F23F00103143291
:10190C0042E800310029F3D1036B012B05D02023D1
:10191C0080F84230002303637047026802F10C0325
:10192C0053E8003F23F010030C3242E80031002949
:10193C00F3D1ECE710B504460268136923F4405365
:10194C00C1680B43136183680269134342691A43EC
:10195C000168CB6823F4B05323F00C031343CB6022
:10196C000268536923F4407381690B435361026825
:10197C00134B9A4220D0FFF79DFC024602EB8202E9
:10198C0002EB820263689B00B2FBF3F20D48A0FBF2
:10199C0002314909642303FB11231B013233A0FBE1
:1019AC0003035B0903F0F00202EB011203F00F03D7
:1019BC00216813448B6010BDFFF78CFC0246DDE7F9
:1019CC00003801401F85EB512DE9F04383B00546EB
:1019DC000E4617469946DDF828802B681C6836EAB7
:1019EC0004040CBF01240024BC4228D1B8F1FF3FF1
:1019FC00F3D0FFF73BF9A0EB0900404523D8B8F131
:101A0C00000F22D02B68DA6812F0040FE5D0802E7C
:101A1C00E3D0402EE1D01A6812F0080FDDD000247C
:101A2C0001941A6801925B680193019B2846FFF7A9
:101A3C0053FF08236B6485F84040012000E0002030
:101A4C0003B0BDE8F0830320FAE70320F8E760B3A6
:101A5C0010B5044690F8413013B3242384F8413078
:101A6C002268D36823F40053D3602046FFF762FF4B
:101A7C002268136923F4904313612268536923F09D
:101A8C002A0353612268D36843F40053D3600020C7
:101A9C006064202384F8413084F84230606310BDC8
:101AAC0080F84030FEF78AFDD7E7012070472DE91A
:101ABC00F04182B01E4690F84130DBB2202B56D15B
:101ACC0004460D469046002955D00AB901204FE036
:101ADC0000234364212380F84130FFF7C7F8074601
:101AEC00A4F82480A4F82680A368B3F5805F02D004
:101AFC004FF0000814E023692BB34FF000080FE0FF
:101B0C00202384F84130032032E038F8023B22686D
:101B1C00C3F308035360E28C92B2013A92B2E284AE
:101B2C00E38C9BB293B100963B4600228021204669
:101B3C00FFF74AFF0028E3D1002DE6D015F8012B62
:101B4C0023685A60E7E7A8460025E9E700963B467C
:101B5C00002240212046FFF737FF18B9202384F8D4
:101B6C00413005E0202384F84130032000E00220BE
:101B7C0002B0BDE8F0810120FAE7704710B50346CA
:101B8C000C4A0D490D48006840B10C4800680344EC
:101B9C00521A934206D8094A136010BD0748084CE4
:101BAC000460F2E700F060FA0C2303604FF0FF30A2
:101BBC00F3E700BF0050002000040000C00100202B
:101BCC00E805002070B50C461646002506E0AFF37C
:101BDC000080214601F8010B01350C46B542F6DBBD
:101BEC00304670BD70B50C461646002504E014F85E
:101BFC00010BFEF7CBFA0135B542F8DB304670BD70
:101C0C004FF0FF3070474FF400534B60002070478B
:101C1C00012070470020704708B50948094B036044
:101C2C00082303710223837100238372C37203732D
:101C3C0000F020F800B908BDFEF7B8FAFBE700BFCA
:101C4C00C4010020005C00400268094B9A4200D09D
:101C5C00704782B003F5DA33DA6942F40002DA61D4
:101C6C00DB6903F400030193019B02B0704700BFD2
:101C7C00005C004038B500286ED0044690F89132D4
:101C8C00A3B1032384F8913200236371206800F020
:101C9C006CF8234653F8040B0ECB00F05FF850B1F0
:101CAC00022384F891320125284638BD80F8903201
:101CBC00FFF7CAFFE5E70021206800F060F8034653
:101CCC0008B9024615E0022384F891320125EBE7AE
:101CDC0002EB820104EBC101012048740A7400205C
:101CEC00C87408624862013202EB8201C90060507C
:101CFC00D2B220799042EBD816E003EB830204EBCE
:101D0C00C202002182F8511182F8503182F853112D
:101D1C00C2F86011C2F8641103EB830204EBC20237
:101D2C00C2F868110133DBB29842E6D8234653F867
:101D3C00040B0ECB00F025F8054620B1022384F8E5
:101D4C0091320125B0E700236373012384F89132AB
:101D5C00206800F027F8A7E70125A5E784B004A8C0
:101D6C0000E90E00002004B07047B0F8403023F4B6
:101D7C007C535B045B0CA0F84030002070470020C3
:101D8C00704784B0844604A800E90E000123ACF827
:101D9C0040300020ACF84000ACF84400ACF85000E7
:101DAC0004B0704700207047FFF7E7FE0B480C4962
:101DBC000C4A002302E0D458C4500433C4188C429B
:101DCC00F9D3094A094C002301E013600432A24202
:101DDC00FBD300F04FF9FEF739FA704700000020F2
:101DEC0068000020EC2E000868000020E8050020A8
:101DFC00FEE70000002310B50446C0E90033C0E93B
:101E0C000433836081814366C28183611946082251
:101E1C005C3000F021F90D4B246263620C4BA36221
:101E2C000C4BE3620C4B23630C4B9C4206D003F12E
:101E3C006802944202D0D0339C4205D104F1580080
:101E4C00BDE8104000F03AB910BD00BF19290008D8
:101E5C003B29000873290008972900089C040020DE
:101E6C00024A0349034800F069B800BF0C00002087
:101E7C00B12800081C00002041680C4B10B5994299
:101E8C00044601D000F00EFDA168094B994202D026
:101E9C00204600F007FDE168064B994204D020462D
:101EAC00BDE8104000F0FEBC10BD00BF9C0400203B
:101EBC00040500206C05002010B50B4B0B4C0C4A94
:101ECC0020461A6004210022FFF794FF04F16800F9
:101EDC0001220921FFF78EFF04F1D0000222BDE898
:101EEC0010401221FFF786BFD40500209C0400206F
:101EFC006D1E0008014800F0E2B800BFD9050020B3
:101F0C00014800F0DDB800BFD905002010B504462B
:101F1C00FFF7F0FF236A1BB1BDE81040FFF7F0BFDD
:101F2C00044B2362044B1B68002BF5D1FFF7C4FF55
:101F3C00F2E700BF851E0008D40500202DE9F84308
:101F4C000746884614460026D4E90195B9F10109E3
:101F5C0005D52468002CF7D13046BDE8F883AB8951
:101F6C00012B07D9B5F90E30013303D02946384679
:101F7C00C04706436835E9E70FB407B5064904AB1B
:101F8C00086853F8042B8168019300F0C1F803B082
:101F9C005DF804EB04B0704718000020036A70B5BC
:101FAC0005460E4684680BB9FFF7B0FF636EDB077E
:101FBC0005D4A389980502D4A06D00F080F8A389FC
:101FCC00190702D52369002B35D12146284600F08C
:101FDC001FFD80B34FF0FF35636EDA0705D4A3897C
:101FEC009B0502D4A06D00F06BF8284670BD002B49
:101FFC0004DAA2699A4217DC0A2915D023685A1C04
:10200C0022601970A36816F8011F013BA360002918
:10201C00EDD1002B11DA22460A21284600F0B9FC3A
:10202C000130D7D00A25D7E72246284600F0B1FC6C
:10203C000130E7D1CEE7013EE4E723685A1C226069
:10204C000A221A70EEE70000024B01461868FFF7EF
:10205C00A5BF00BF1800002003460244934200D1E4
:10206C00704703F8011BF9E7014B1868704700BF74
:10207C001800002070B500260C4D0D4C641BA410EC
:10208C00A64209D100F04AFE00260A4D0A4C641BF8
:10209C00A410A64205D170BD55F8043B98470136F3
:1020AC00EEE755F8043B98470136F2E7E42E0008BA
:1020BC00E42E0008E42E0008E82E00087047704754
:1020CC007047936810B4013B002B936007DA946956
:1020DC00A34201DB0A2902D110BC00F05ABC1368E0
:1020EC00581C10601970084610BC7047F8B50646AD
:1020FC000F461446D518AC4201D1002007E03A46F1
:10210C00304614F8011BFFF7DCFF431CF3D1F8BD7C
:10211C002DE9F04F0D461446984606469DB018B171
:10212C00036A0BB9FFF7F2FE6B6ED90705D4AB89C6
:10213C009A0502D4A86DFFF7C2FFAB891B0701D526
:10214C002B699BB92946304600F062FC70B16B6E6E
:10215C00DC0704D54FF0FF301DB0BDE8F08FAB8924
:10216C009805F7D4A86DFFF7ABFFF3E700230993AD
:10217C0020238DF8293030234FF00109CDF80C8045
:10218C00DFF8A8818DF82A3023469A4613F8012BE4
:10219C000AB1252AF9D1BAEB040B0BD05B462246C7
:1021AC0029463046FFF7A2FF013000F0A780099ABC
:1021BC005A4409929AF80030002B00F09F800023BB
:1021CC004FF0FF32CDE905230AF1010A049307937E
:1021DC008DF853301A935446052214F8011B5348BA
:1021EC0000F046FD049AD8B9D10644BF20238DF8DF
:1021FC005330130744BF2B238DF853309AF800301B
:10220C002A2B15D0544600204FF00A0C079A214671
:10221C0011F8013B303B092B4BD9B0B1079214E0BC
:10222C00A0EB080309FA03F31343A2460493D2E785
:10223C00039B191D1B680391002BBBBF5B4242F033
:10224C00020207930793B8BF049223782E2B0AD16E
:10225C0063782A2B32D1039B02341A1D1B6803921C
:10226C0043EAE3730593DFF8C8A0032250462178B4
:10227C0000F0FEFC38B14022049BA0EB0A00824027
:10228C0013430134049314F8011B062229488DF8DA
:10229C00281000F0EDFC00283FD0274B1BBB039B04
:1022AC00073323F0070308330393099B3B4409933B
:1022BC006AE70C4601200CFB0232A8E700234FF022
:1022CC000A0C194601340593204610F8012B303ABC
:1022DC00092A03D9002BC6D00591C4E70446012373
:1022EC000CFB0121F0E703AB00932A463046134B5D
:1022FC0004A9AFF300800746781CD6D16B6ED907C2
:10230C0005D4AB899A0502D4A86DFFF7D9FEAB8929
:10231C005B063FF51FAF09981EE703AB00932A46F7
:10232C003046064B04A900F01FF9E4E7B02E000874
:10233C00B62E0008BA2E000800000000F920000894
:10234C0070B50F4E0C463168054611B900F04CFCC7
:10235C0030602146284600F047FC431C03D14FF067
:10236C00FF34204670BDC41C24F00304A042F8D0F6
:10237C00211A284600F038FC0130F2D1EFE700BFFB
:10238C00DC0500202DE9F843CD1C25F003050835AC
:10239C000C2D38BF0C25002D064601DBA94204D9B3
:1023AC000C2333600020BDE8F883DFF8D48000F004
:1023BC00A1FAD8F800301C4644BB29463046FFF73A
:1023CC00BFFF431C044658D1D8F800402746002FC5
:1023DC0043D1002C4BD023683946304604EB03091B
:1023EC0000F002FC814542D1216830466D1A294625
:1023FC00FFF7A6FF01303AD023682B442360D8F8AE
:10240C0000305A6862BBC8F800700FE02268521B9B
:10241C0020D40B2A17D96119A342256018BF596023
:10242C00636808BFC8F8001062514B60304600F07A
:10243C0067FA04F10B00231D20F00700C21A1CBF21
:10244C001B1AA350AFE76268A3420CBFC8F8002068
:10245C005A60EBE723466468AEE73C467F68B6E714
:10246C001A465B68A342FBD100235360DEE70C23C2
:10247C003046336000F044FA94E70560D6E700BFBD
:10248C00E00500202DE9F047164698468A680B694E
:10249C0007469342B8BF1346336091F843200C466D
:1024AC00DDF820900AB1013333602368990642BFEE
:1024BC00336802333360256815F0060506D104F144
:1024CC00190AE36832689B1AAB422BDC94F8433050
:1024DC002268003B18BF0123920630D4414638468F
:1024EC0004F14302C847013023D02368226903F06A
:1024FC000603042B14BF002533684FF0000608BFF9
:10250C00E56804F11A0408BFED1A54F8123C08BF30
:10251C0025EAE5759342C4BF9B1AED18B5421AD152
:10252C00002008E00123524641463846C847013096
:10253C0003D14FF0FF30BDE8F0870135C1E7302003
:10254C00E11881F843005A1C94F8451022440233D8
:10255C0082F84310C2E70123224641463846C84759
:10256C000130E6D00136D9E72DE9FF470F7E9146C1
:10257C00782F80460C469A460C9E01F1430207D8F0
:10258C00622F0AD8002F00F0D180582F00F0B880AD
:10259C0004F1420684F842703AE0A7F16303152B6C
:1025AC00F6D801A151F823F00D26000821260008C9
:1025BC009D2500089D2500089D2500089D250008E7
:1025CC00212600089D2500089D2500089D25000852
:1025DC009D2500081F2700084B260008D926000857
:1025EC009D2500089D250008412700089D25000811
:1025FC004B2600089D2500089D250008E1260008B3
:10260C0033681A1D1B68326004F1420684F84230AC
:10261C0001239CE033682068191D3160060601D542
:10262C001D6803E04506FBD5B3F90050002D03DA15
:10263C002D236D4284F843300A23584811E0216859
:10264C003368080653F8045B02D4490648BFADB2A0
:10265C006F2F336014BF0A2308235048002184F8DD
:10266C0043106668002EA66005DB21682E4321F01E
:10267C00040121604BD01646B5FBF3F103FB115757
:10268C00C75D06F8017D2F46BB420D46F4D9082BD9
:10269C000BD12368DF0708D5236961689942DEBF37
:1026AC00302306F8013C06F1FF36921B22614B46A3
:1026BC0021464046CDF800A003AAFFF7E3FE013007
:1026CC004AD14FF0FF3004B0BDE8F087236843F0E7
:1026DC00200323607827324884F8457023683168DA
:1026EC001F0651F8045B02D45F0648BFADB23160DF
:1026FC00D90744BF43F0200323601DB11023ADE77D
:10270C002648E9E7236823F020032360F6E7164602
:10271C00BDE733682568181D616930602E061B689B
:10272C0001D5196002E06806FBD519800023164616
:10273C002361BCE7336800211A1D32601E68626891
:10274C00304600F095FA08B1801B60606368236125
:10275C00002384F84330AAE73246494640462369B1
:10276C00D0470130ADD023689B0713D4E068039B9E
:10277C009842B8BF1846A6E7012332464946404660
:10278C00D04701309DD00135E36803995B1AAB4209
:10279C00F2DCEBE7002504F11906F5E7C12E000881
:1027AC00D22E0008B1F90C20F8B5160705460C46D8
:1027BC0054D44B68002B02DC0B6C002B48DDE66A12
:1027CC00002E45D0002312F480522F68216A2B6012
:1027DC0030D0626DA389590705D56368D21A636B33
:1027EC000BB1236CD21A00232846E66A216AB04743
:1027FC00431CA38906D129681D292BD8284ACA4015
:10280C00D60727D5002262602269D904226004D53C
:10281C00421C01D12B6803B96065616B2F60B9B1A3
:10282C0004F14403994202D0284600F02FFA002309
:10283C0063630DE001232846B0470246501CC9D102
:10284C002B68002BC6D01D2B01D0162B1DD12F6051
:10285C00002021E043F040031BB21AE00F69002F67
:10286C00F6D0930718BF00230E6808BF4B69F61B00
:10287C000F608B60002EEBDD33463A462846216A0A
:10288C00D4F828C0E047002807DCB4F90C3043F03A
:10289C0040034FF0FF30A381F8BD0744361AE9E737
:1028AC000100402038B50B6905460C4613B90025CC
:1028BC00284638BD18B1036A0BB9FFF727FBB4F9EA
:1028CC000C30002BF3D0626ED00704D4990502D4DF
:1028DC00A06DFFF7F4FB28462146FFF763FF636EFC
:1028EC000546DA07E4D4A3899B05E1D4A06DFFF774
:1028FC00E7FBDDE70148FFF7E2BB00BFD80500208E
:10290C000148FFF7DDBB00BFD805002010B50C4611
:10291C00B1F90E1000F056F90028ABBF636DA38916
:10292C001B1823F48053ACBF6365A38110BD2DE944
:10293C00F0411F468B890546DB050C46164605D52E
:10294C0002230022B1F90E1000F02AF9A3893246B5
:10295C0023F48053A38128463B46B4F90E10BDE8FE
:10296C00F04100F051B910B50C46B1F90E1000F061
:10297C0017F9431CA38915BF606523F4805343F4F6
:10298C008053A38118BFA38110BDB1F90E1000F0C4
:10299C004DB9F8B50E461446054618B1036A0BB985
:1029AC00FFF7B4FAA369A360A3891A0701D52369B9
:1029BC0043B92146284600F02BF818B14FF0FF37E9
:1029CC003846F8BD23682269F6B2981A636937460F
:1029DC00834205DC21462846FFF764FF0028EDD131
:1029EC00A368013BA36023685A1C22601E706269B5
:1029FC00431C9A4204D0A389DB07E1D50A2EDFD110
:102A0C0021462846FFF74EFF0028D9D0D6E7000014
:102A1C0038B5294B054618680C4618B1036A0BB932
:102A2C00FFF774FAB4F90C30190722D4DA0607D47C
:102A3C0009222A6043F040034FF0FF30A38133E0BA
:102A4C00580712D5616B41B104F14403994202D08D
:102A5C00284600F01BF900236363A38923F02403A9
:102A6C00A3810023636023692360A38943F00803D7
:102A7C00A38123694BB9A38903F42073B3F5007FB9
:102A8C0003D02146284600F03EF8B4F90C3013F080
:102A9C0001020AD00022A26062695242A26122693C
:102AAC0042B913F08000C5D138BD990758BF62698F
:102ABC00A260F4E70020F7E71800002070B50C4680
:102ACC00B1F90E10154600291E4696B00CDAA389F2
:102ADC00002113F0800F14BF40234FF480630020BB
:102AEC0031602B6016B070BD6A4600F0AFF800285C
:102AFC00EDDB019901F47041A1F5005359425941A4
:102B0C004FF48063EBE78B89F7B59D0706460C46BF
:102B1C0007D504F14703236023610123636103B0EC
:102B2C00F0BD6A4601ABFFF7C9FF009F0546394669
:102B3C003046FFF727FC48B9B4F90C309A05EED4AF
:102B4C0023F0030343F00203A381E2E7A389C4E962
:102B5C00040743F08003A381019B20605BB13046E6
:102B6C00B4F90E1000F00CF828B1A38923F003037C
:102B7C0043F00103A381A3891D43A581CFE7000086
:102B8C0038B50023054D044608462B60FFF740F886
:102B9C00431C02D12B6803B1236038BDE40500202F
:102BAC0038B50446084611460022054D2A601A46DF
:102BBC00FFF730F8431C02D12B6803B1236038BDFA
:102BCC00E405002038B50446084611460022054DA0
:102BDC002A601A46FEF7F6FF431C02D12B6803B19C
:102BEC00236038BDE405002038B50023054D0446AC
:102BFC0008462B60FEF7C2FF431C02D12B6803B1C1
:102C0C00236038BDE405002038B50446084611465B
:102C1C000022054D2A601A46FEF7E4FF431C02D140
:102C2C002B6803B1236038BDE405002038B50023C0
:102C3C00054D044608462B60FEF7E2FF431C02D10B
:102C4C002B6803B1236038BDE405002038B50023A0
:102C5C00064D0446084611462B60FEF7D4FF431C74
:102C6C0002D12B6803B1236038BD00BFE4050020FE
:102C7C00034610B5C9B202449342184601D1002054
:102C8C0003E0047801338C42F6D110BD38B505460B
:102C9C00002940D051F8043C0C1F002BB8BFE4189D
:102CAC00FFF728FE1C4A136833B96360146028468A
:102CBC00BDE83840FFF724BEA34208D9206821188C
:102CCC008B4201BF19685B6809182160EDE71A4651
:102CDC005B680BB1A342FAD911685018A0420BD112
:102CEC0020680144501883421160E0D118685B6879
:102CFC00084410605360DAE702D90C232B60D6E746
:102D0C00206821188B4201BF19685B680918216083
:102D1C0063605460CBE738BDE0050020F8B500BF18
:102D2C00F8BC08BC9E467047F8B500BFF8BC08BCA0
:042D3C009E467047F8
:102D400052656369657665642043414E4255532060
:102D50006D6573736167652E2E2E0D0043414E2005
:102D60004D657373616765205265616420466169D2
:102D70006C65642E2048414C204552524F522E2EF5
:102D80002E200D004D6573736167652068617320A7
:102D90007374616E64617264204944207479706553
:102DA0002E2E2E0D000000004D65737361676520A7
:102DB00049443A0925236C780D0A00004D65737368
:102DC0006167652068617320657874656E64656409
:102DD00020494420747970652E2E2E0D00000000CD
:102DE0004552524F523A20556E6B6E6F776E2049A6
:102DF000444520747970650D000000004D657373C3
:102E0000616765206C656E67746820697320256C46
:102E10006420627974652873290000004279746522
:102E20002025643A203078253032580D0A00000001
:102E300046756C6C206D61696C626F780D000000E6
:102E40007265636569766564206D65737361676536
:102E50000D0000004D657373616765206C656E67DA
:102E6000746820697320256C642062797465287306
:102E7000290D0A0048656C6C6F2C20554152542175
:102E80000D0A0000010200000203040506070809FC
:102E90000A0B0C0D0E0F10100000000001020304BD
:102EA00000000000000000000102030406070809FA
:102EB000232D302B2000686C4C0065666745464723
:102EC00000303132333435363738394142434445A6
:102ED0004600303132333435363738396162636415
:042EE0006566000023
:042EE400750100086C
:042EE8004D01000890
:102EEC00010000001000000000127A000000000039
:102EFC00030000009C0400201C00002000000000C7
:102F0C009C040020040500206C050020000000003B
:102F1C0000000000000000000000000000000000A5
:102F2C000000000000000000000000000000000095
:102F3C000000000000000000000000000000000085
:082F4C0000000000000000007D
:0400000508001DB51D
:00000001FF
