:020000040800F2
:1000000000500020051500085D0400085F0400088A
:100010006104000863040008650400080000000093
:10002000000000000000000000000000670400085D
:1000300069040008000000006B0400086D0400085B
:100040004D1500084D1500084D1500084D15000808
:100050004D1500084D1500084D1500084D150008F8
:100060004D1500084D1500084D1500084D150008E8
:100070004D1500084D1500084D1500084D150008D8
:100080004D1500084D1500084D1500084D150008C8
:10009000750400084D1500084D1500084D150008A1
:1000A0004D1500084D1500084D1500084D150008A8
:1000B0004D1500084D1500084D1500084D15000898
:1000C0004D1500084D1500084D1500084D15000888
:1000D0004D1500084D1500084D1500084D15000878
:1000E0004D1500084D1500084D15000800000000D2
:1000F0000000000000000000000000000000000000
:0C01000000000000000000005FF808F1A3
:10010C000348044B834202D0034B03B1184770479A
:10011C000C0000200C000020000000000548064BDD
:10012C001B1AD90F01EBA301491002D0034B03B1E9
:10013C00184770470C0000200C0000200000000045
:10014C0010B5064C237843B9FFF7DAFF044B13B113
:10015C000448AFF300800123237010BD0C00002075
:10016C0000000000A815000808B5054B1BB1054997
:10017C000548AFF30080BDE80840FFF7CFBF00BFD4
:10018C000000000010000020A815000872B6FEE761
:10019C0000B591B02822002106A801F0D2F9002365
:1001AC0001930293039304930593012206924FF457
:1001BC00803307934FF4003108910A9202220D927A
:1001CC000E934FF4E0130F9306A800F079FC80B95E
:1001DC000F23019302210291002303934FF48062B9
:1001EC000492059301A800F0A3FE20B911B05DF8AC
:1001FC0004FBFFF7CBFFFFF7C9FF000008B5022196
:10020C000C4800F0B6FA08B1FFF7C0FF00F01EFC76
:10021C00FFF7BEFF00F02EF800F05EF800F0C2F819
:10022C00054B1B68002BFBD001220421034801F075
:10023C0069F8F5E7500000204C0000200008014050
:10024C0008B5094B094A002100F0DEF930B9074B1B
:10025C001A6840F203139A4202D008BDFFF796FFCA
:10026C00034B01221A60F8E7280000203000002020
:10027C004C00002030B587B0002402940394049401
:10028C000594134B9A6942F020029A619A6902F024
:10029C0020020092009A9A6942F004029A619B69CA
:1002AC0003F004030193019B0A4D224604212846C6
:1002BC0001F028F8042302930123039304940223EE
:1002CC00059302A9284600F00FFF07B030BD00BF10
:1002DC00001002400008014008B50F480F4B0360A6
:1002EC0008234360002383604FF08072C2604FF498
:1002FC00403202614FF440124261037643768376BA
:10030C000122C2760377437700F0D8F800B908BD14
:10031C00FFF73CFFFBE700BF5000002000640040EB
:10032C0010B586B0002302930393049305930268DF
:10033C001A4B9A4201D006B010BD03F5D633DA69D8
:10034C0042F00072DA61DA6902F000720092009AEF
:10035C009A6942F004029A619B6903F004030193C9
:10036C00019B4FF4006302930D4C02A9204600F050
:10037C00BBFE4FF480530293022303930323059394
:10038C0002A9204600F0B0FE00221146142001F014
:10039C0005F8142001F012F8CDE700BF006400400E
:1003AC000008014008B50A480A4B03604FF4E133DA
:1003BC00436000238360C36003610C22426183614C
:1003CC00C36101F067F800B908BDFFF7DFFEFBE77A
:1003DC00780000200038014010B586B0002302934D
:1003EC000393049305930268174B9A4201D006B00D
:1003FC0010BD03F558439A6942F480429A619A6998
:10040C0002F480420092009A9A6942F004029A61C6
:10041C009B6903F004030193019B4FF40073029357
:10042C000223039303230593084C02A9204600F0F2
:10043C005BFE4FF48063029300230393049302A9A1
:10044C00204600F051FED2E7003801400008014080
:10045C00FEE7FEE7FEE7FEE7FEE7704770477047F2
:10046C0008B500F005FB08BD08B5024800F09FF97F
:10047C0008BD00BF5000002082B00E4B9A6942F0BC
:10048C0001029A619A6902F001020092009ADA69FB
:10049C0042F08052DA61DB6903F080530193019BD7
:1004AC00054A536823F0E06343F08063536002B065
:1004BC00704700BF0010024000000140002800F00F
:1004CC00A18038B5044690F82030D3B12268136867
:1004DC0043F00103136000F0D7FA054623685A680D
:1004EC0012F0010F10D100F0CFFA401B0A28F5D9F9
:1004FC00636A43F400336362052384F820300120DF
:10050C0038BDFFF70DFFE1E71A6822F002021A600E
:10051C0000F0BAFA054623685A6812F0020F0DD0A3
:10052C0000F0B2FA401B0A28F5D9636A43F4003391
:10053C006362052384F820300120E1E7227E012A42
:10054C003DD01A6822F080021A60637E012B3BD0EA
:10055C002268136823F040031360A37E012B39D06B
:10056C002268136823F020031360E37E012B37D03D
:10057C002268136843F010031360237F012B35D0DE
:10058C002268136823F008031360637F012B33D0B8
:10059C002268136823F004031360A368E268134312
:1005AC0022691343626913436268013A2168134359
:1005BC00CB6100206062012384F82030A0E71A6828
:1005CC0042F080021A60C0E72268136843F04003CF
:1005DC001360C2E72268136843F020031360C4E77A
:1005EC002268136823F010031360C6E722681368AF
:1005FC0043F008031360C8E72268136843F0040350
:10060C001360CAE70120704790F820C00CF1FF3C42
:10061C005FFA8CFCBCF1010F00F2A58030B451B92B
:10062C000468E46814F0030F10D1436A43F4001318
:10063C00436201207EE00468246914F0030F05D1A5
:10064C00436A43F400134362012073E0056801F12F
:10065C001B0424012C5904F004049460002C6BD16D
:10066C00056801F11B0424012C59640D1460046805
:10067C0001F11B0C4FEA0C1C54F80C4004F0020462
:10068C00D4600468A444DCF8045015F0080F5BD067
:10069C0008241461046801F11B0C04EB0C1464684D
:1006AC00C4F307249461046804EB0C146468240CF0
:1006BC005461026802EB0112D2F8B8211A70026878
:1006CC0002EB0112D2F8B821C2F307225A70026869
:1006DC0002EB0112D2F8B821C2F307429A700268F9
:1006EC0002EB0112D2F8B821120EDA70026802EB9A
:1006FC000112D2F8BC211A71026802EB0112D2F875
:10070C00BC21C2F307225A71026802EB0112D2F823
:10071C00BC21C2F307429A71026802EB0112D2F8B3
:10072C00BC21120EDA71C1B90268D36843F0200300
:10073C00D360002030BC7047056801F11B04240114
:10074C002C59E408546092E701F11B0504EB0514E5
:10075C00646804F00F0414619CE70268136943F0A9
:10076C0020031361E5E7436A43F4802343620120CD
:10077C00704790F82030013BDBB2012B05D9436A5E
:10078C0043F48023436201207047026853690B4392
:10079C00536100207047704770477047704770472F
:1007AC0070477047704770477047704770472DE926
:1007BC00F84F054603685C69D3F804809F68D3F84A
:1007CC000CA0D3F81090D3F818B014F001063BD05D
:1007DC0017F0010616D001229A6017F0020F08D10B
:1007EC0017F0040F0CD117F0080606D04FF4805602
:1007FC0008E0FFF7D0FF002604E0FFF7CFFF01E091
:10080C004FF4006617F4807F0DD02B684FF4807284
:10081C009A6017F4007F40F0968017F4806F00F018
:10082C00968046F4005617F4803F0DD02B684FF499
:10083C0080329A6017F4003F40F0938017F4802FB9
:10084C0000F0938046F4004614F0080F07D01AF01D
:10085C00100F04D046F400762B681022DA6014F0E6
:10086C00040F03D01AF0080F40F0898014F0020F27
:10087C0005D02B68DB6813F0030F40F0878014F071
:10088C00400F07D019F0100F04D046F480662B6887
:10089C0010221A6114F0200F02D019F0080F79D130
:1008AC0014F0100F04D02B681B6913F0030F78D1D0
:1008BC0014F4003F02D018F0100F76D114F4803FDE
:1008CC0002D018F0080F77D114F4004F37D018F07D
:1008DC00040F31D014F4807F04D01BF0010F01D031
:1008EC0046F0010614F4007F04D01BF0020F01D077
:1008FC0046F0020614F4806F04D01BF0040F01D0F4
:10090C0046F0040614F4006F16D01BF0700B13D0D5
:10091C00BBF1400F66D056D8BBF1200F5CD0BBF1B9
:10092C00300F5CD0BBF1100F01D146F008062A68DD
:10093C00936923F0700393612B6804225A60002E94
:10094C0056D1BDE8F88F2846FFF726FF6BE717F462
:10095C00006F02D046F4804665E72846FFF71FFF7C
:10096C0061E72846FFF719FF6EE717F4002F02D056
:10097C0046F4803668E72846FFF712FF64E72B68D9
:10098C000822DA602846FFF70CFF6FE72846FFF7CE
:10099C0057FC74E72B6808221A612846FFF703FFFF
:1009AC007EE72846FFF7FEFE82E72B6810225A608E
:1009BC002846FFF7F9FE81E72B6808225A60284683
:1009CC00FFF7F3FE80E7BBF1500F0ED0BBF1600FC9
:1009DC00ADD146F48076AAE746F01006A7E746F0BC
:1009EC002006A4E746F04006A1E746F080069EE705
:1009FC006B6A33436B622846FFF7D8FEA1E7000011
:100A0C0010B504460E4B1A784FF47A73B3FBF2F31D
:100A1C000C4A1068B0FBF3F000F0DEFC68B90F2C48
:100A2C0001D901200AE0002221464FF0FF3000F0EE
:100A3C00B5FC054B1C60002000E0012010BD00BF80
:100A4C0000000020080000200400002008B5074A20
:100A5C00136843F010031360032000F08DFC0F208B
:100A6C00FFF7CEFFFFF708FD002008BD0020024075
:100A7C00034A1168034B1B780B441360704700BF8B
:100A8C00C000002000000020014B1868704700BF18
:100A9C00C000002082B0084B1B68084AA2FB03234D
:100AAC005B0A00FB03F3019300BF019B5A1E0192EA
:100ABC00002BF9D102B0704708000020D34D621012
:100ACC00002800F0F18170B582B00446036813F081
:100ADC00010F2CD0994B5B6803F00C03042B1DD039
:100AEC00964B5B6803F00C03082B12D06368B3F5CC
:100AFC00803F41D0002B55D103F1804303F50433E3
:100B0C001A6822F480321A601A6822F480221A6061
:100B1C0037E08A4B5B6813F4803FE7D0874B1B6848
:100B2C0013F4003F03D06368002B00F0BF812368EF
:100B3C0013F0020F75D0814B5B6813F00C0F5FD074
:100B4C007E4B5B6803F00C03082B54D02369002BFD
:100B5C0000F08A807A4B01221A60FFF795FF054658
:100B6C00764B1B6813F0020F75D1FFF78DFF401BFE
:100B7C000228F5D903209EE1704A136843F48033B0
:100B8C001360636843B3FFF77FFF05466B4B1B682D
:100B9C0013F4003FCBD1FFF777FF401B6428F5D946
:100BAC00032088E1B3F5A02F09D0644B1A6822F416
:100BBC0080321A601A6822F480221A60E1E703F18D
:100BCC008043A3F53C331A6842F480221A601A68F9
:100BDC0042F480321A60D4E7FFF756FF0546574BB4
:100BEC001B6813F4003FA2D0FFF74EFF401B642894
:100BFC00F5D903205FE1514B5B6813F4803FA5D11D
:100C0C004E4B1B6813F0020F03D02369012B40F0ED
:100C1C004F814A4A136823F0F803616943EAC10320
:100C2C001360236813F0080F33D0A369002B5CD03A
:100C3C00434B0122C3F88024FFF726FF05463F4BA8
:100C4C005B6A13F0020F21D1FFF71EFF401B022835
:100C5C00F5D903202FE1394A136823F0F8036169B1
:100C6C0043EAC1031360DCE7354B00221A60FFF73F
:100C7C000BFF0546314B1B6813F0020FD1D0FFF769
:100C8C0003FF401B0228F5D9032014E10120FFF7D4
:100C9C0001FF236813F0040F00F09680274BDB69EB
:100CAC0013F0805F34D1254BDA6942F08052DA615F
:100CBC00DB6903F080530193019B0125214B1B68D9
:100CCC0013F4807F26D0E368012B3DD0002B53D149
:100CDC0003F1804303F504331A6A22F001021A620D
:100CEC001A6A22F004021A6233E0154B0022C3F890
:100CFC008024FFF7C9FE0546104B5B6A13F0020F08
:100D0C00C7D0FFF7C1FE401B0228F5D90320D2E063
:100D1C000025D3E70B4A136843F480731360FFF785
:100D2C00B3FE0646074B1B6813F4807FCBD1FFF74D
:100D3C00ABFE801B6428F5D90320BCE000100240F8
:100D4C0000004242007000405F4A136A43F0010306
:100D5C001362E36833B3FFF797FE06465A4B1B6AE0
:100D6C0013F0020F2FD1FFF78FFE801B41F2883357
:100D7C009842F3D903209EE0052B09D0524B1A6AF6
:100D8C0022F001021A621A6A22F004021A62E0E7E7
:100D9C004D4B1A6A42F004021A621A6A42F00102BE
:100DAC001A62D6E7FFF770FE0646474B1B6A13F034
:100DBC00020F08D0FFF768FE801B41F2883398427F
:100DCC00F3D9032077E0E5B9E369002B72D03E4AF2
:100DDC00526802F00C02082A56D0022B17D03B4B5B
:100DEC0000221A66FFF750FE0446374B1B6813F0BF
:100DFC00007F47D0FFF748FE001B0228F5D90320DF
:100E0C0059E0314AD36923F08053D361DCE72F4B8F
:100E1C0000221A66FFF738FE05462B4B1B6813F0B1
:100E2C00007F06D0FFF730FE401B0228F5D90320C7
:100E3C0041E0236AB3F5803F1AD023494B6823F471
:100E4C007413226A606A024313434B601F4B0122E6
:100E5C001A66FFF719FE04461B4B1B6813F0007F44
:100E6C000ED1FFF711FE001B0228F5D9032022E05A
:100E7C00154A536823F40033A1680B435360DCE735
:100E8C00002018E0002016E0012B16D00E4B5B68FA
:100E9C0003F48031226A914211D103F47013626A17
:100EAC0093420ED1002006E001207047012002E0A1
:100EBC00012000E0002002B070BD0120FBE7012002
:100ECC00F9E70120F7E700BF0010024000004242A2
:100EDC00114B5B6803F00C02042A18D0082A18D1B5
:100EEC00C3F383420D49885C13F4803F0BD00A4B4B
:100EFC005B68C3F340430A4AD35C0A4A02FB00F026
:100F0C00B0FBF3F07047084B03FB00F0704705484B
:100F1C0070470648704700BF00100240C415000817
:100F2C00C01500080024F40000093D0000127A00EE
:100F3C00002800F0A08070B50D460446524B1B688B
:100F4C0003F007038B420BD24F4A136823F00703BD
:100F5C000B431360136803F007038B4240F08D8042
:100F6C00236813F0020F17D013F0040F04D0474A74
:100F7C00536843F4E0635360236813F0080F04D004
:100F8C00424A536843F460535360404A536823F019
:100F9C00F003A1680B435360236813F0010F31D0A9
:100FAC006368012B20D0022B25D0384A126812F02E
:100FBC00020F64D035494A6822F0030213434B6098
:100FCC00FFF762FD0646314B5B6803F00C03626869
:100FDC00B3EB820F16D0FFF757FD801B41F288331D
:100FEC009842F0D9032045E0284A126812F4003FD9
:100FFC00E0D101203EE0254A126812F0007FD9D1E1
:10100C00012037E0204B1B6803F00703AB420AD9E1
:10101C001D4A136823F007032B431360136803F076
:10102C000703AB422DD1236813F0040F06D0174AE7
:10103C00536823F4E063E1680B435360236813F0B7
:10104C00080F07D0114A536823F46053216943EA0F
:10105C00C1035360FFF73CFF0C4B5B68C3F30313F6
:10106C000B4AD35CD8400B4B18600B4B1868FFF73E
:10107C00C7FC002070BD012070470120FAE7012059
:10108C00F8E70120F6E700BF002002400010024004
:10109C00DC1500080800002004000020014B186833
:1010AC00704700BF0800002008B5FFF7F7FF044B9E
:1010BC005B68C3F30223034AD35CD84008BD00BF6E
:1010CC0000100240D415000808B5FFF7E7FF044BE9
:1010DC005B68C3F3C223034AD35CD84008BD00BF8E
:1010EC0000100240D415000870B582B00024A4464C
:1010FC00A1E07E4DAB4214D00CD8A5F58015AB42C7
:10110C000FD005F57025AB420BD0A5F58015AB4281
:10111C0010D106E0764DAB4203D005F58035AB42DD
:10112C0008D18B68002B50D0012B49D04261082488
:10113C0000E0CC68BEF1FF0F49D806464FEA8C029E
:10114C0033680F25954023EA050304FA02F2134392
:10115C0033604B6813F0805F6BD0664B9A6942F03A
:10116C0001029A619B6903F001030193019B4FEA11
:10117C009C02951C604B53F825600CF00305AD00E8
:10118C000F23AB4026EA03065C4B984226D003F5AE
:10119C008063984200F08C8003F58063984200F0E5
:1011AC00898003F58063984216D0042317E0CC683D
:1011BC000434BFE7CC680834BCE7CC680C34B9E71E
:1011CC0002610824B6E70024B4E70424B2E7061D44
:1011DC00ACF108029200B3E7032300E00023AB401C
:1011EC0033430232444D45F822304B6813F4801FD0
:1011FC0062D0434A936843EA0E0393604B6813F43E
:10120C00001F5FD03E4AD36843EA0E03D3604B689D
:10121C0013F4003F5CD03A4A536843EA0E03536020
:10122C004B6813F4803F59D0354A136843EA0E03D8
:10123C0013600CF1010C0B6833FA0CF254D0012240
:10124C0002FA0CF203EA020E32EA0303F1D14B6804
:10125C00122B3FF64EAF122B3FF66CAF01A555F893
:10126C0023F000BF2F1100083F110008C111000826
:10127C00D311000841110008411100084111000868
:10128C0041110008411100084111000841110008EA
:10129C0041110008411100084111000841110008DA
:1012AC004111000841110008BB110008C7110008CA
:1012BC00012394E7022392E7114A936823EA0E0371
:1012CC0093609BE70E4AD36823EA0E03D3609EE734
:1012DC000B4A536823EA0E035360A1E7084A1368CC
:1012EC0023EA0E031360A4E702B070BD00002210C5
:1012FC0000003110001002400000014000080140C5
:10130C00000401400AB10161704709040161704792
:10131C00002808DB0901C9B200F1604000F561400A
:10132C0080F80013704700F00F000901C9B2014B9F
:10133C001954704714ED00E000B500F00700C0F13F
:10134C00070CBCF1040F28BF4FF0040C031D062B37
:10135C000FD9C31E4FF0FF3E0EFA0CF021EA00012C
:10136C0099400EFA03FE22EA0E0241EA02005DF8F1
:10137C0004FB0023EEE70000074AD36823F4E06384
:10138C001B041B0C000200F4E060034343F0BF633A
:10139C0043F40033D360704700ED00E010B5044611
:1013AC00054BD868C0F30220FFF7C6FF0146204664
:1013BC00FFF7AEFF10BD00BF00ED00E0002807DB1B
:1013CC0000F01F02400901239340024A42F82030EA
:1013DC00704700BF00E100E00138B0F1807F0BD214
:1013EC004FF0E0235861054AF02182F823100020C9
:1013FC00986107221A6170470120704700ED00E0E8
:10140C0010B504460268136923F44053C1680B43BA
:10141C00136183680269134342691A430168CB68FC
:10142C0023F4B05323F00C031343CB6002685369CD
:10143C0023F4407381690B4353610268134B9A4246
:10144C0020D0FFF731FE024602EB820202EB820251
:10145C0063689B00B2FBF3F20D48A0FB0231490913
:10146C00642303FB11231B013233A0FB03035B0931
:10147C0003F0F00202EB011203F00F032168134496
:10148C008B6010BDFFF720FE0246DDE700380140FF
:10149C001F85EB5160B310B5044690F8413013B37F
:1014AC00242384F841302268D36823F40053D3609A
:1014BC002046FFF7A5FF2268136923F490431361BC
:1014CC002268536923F02A0353612268D36843F4DA
:1014DC000053D36000206064202384F8413084F8EA
:1014EC004230606310BD80F84030FEF775FFD7E7DF
:1014FC000120704770470000FFF7FCFF0B480C49B8
:10150C000C4A002302E0D458C4500433C4188C4253
:10151C00F9D3094A094C002301E013600432A242BA
:10152C00FBD300F017F8FEF769FE704700000020AF
:10153C000C000020F41500080C000020C400002052
:10154C00FEE703460244934200D1704703F8011BA7
:10155C00F9E7000070B500260C4D0D4C641BA4106F
:10156C00A64209D100F01AF800260A4D0A4C641B59
:10157C00A410A64205D170BD55F8043B984701361E
:10158C00EEE755F8043B98470136F2E7EC150008F6
:10159C00EC150008EC150008F0150008F8B500BFB4
:1015AC00F8BC08BC9E467047F8B500BFF8BC08BC38
:0415BC009E46704790
:1015C0000102000002030405060708090A0B0C0DBE
:1015D0000E0F1010000000000102030400000000C4
:0C15E000000000000102030406070809D7
:0415EC00750100087D
:0415F0004D010008A1
:0C15F400010000001000000000127A004E
:0400000508001505D5
:00000001FF
